:100000000C942A000C9447000C9447000C94470071
:100010000C9447000C9447000C9447000C94470044
:100020000C9447000C9447000C94B8020C944700C1
:100030000C9447000C9447000C9447000C94470024
:100040000C9447000C9447000C9447000C94470014
:100050000C94470011241FBECFE5D8E0DEBFCDBF12
:1000600010E0A0E6B0E0E0ECF5E002C005900D92F3
:10007000A437B107D9F720E0A4E7B0E001C01D9292
:10008000A537B207E1F70E941C020C94DE020C9423
:100090000000823419F118F4813439F00895833462
:1000A000B1F1843409F44CC00895413059F42AB3B5
:1000B00081E090E002C0880F991F6A95E2F7822BD9
:1000C0008ABB08952AB381E090E002C0880F991F8F
:1000D0006A95E2F7809582238ABB0895413059F4EE
:1000E00027B381E090E002C0880F991F6A95E2F77C
:1000F000822B87BB089527B381E090E002C0880F70
:10010000991F6A95E2F78095822387BB0895413055
:1001100059F424B381E090E002C0880F991F6A95DA
:10012000E2F7822B84BB089524B381E090E002C003
:10013000880F991F6A95E2F78095822384BB089502
:10014000413059F421B381E090E002C0880F991F3B
:100150006A95E2F7822B81BB089521B381E090E09C
:1001600002C0880F991F6A95E2F78095822381BBB0
:100170000895823419F118F4813439F008958334E4
:10018000B1F1843409F44CC00895413059F42BB3D3
:1001900081E090E002C0880F991F6A95E2F7822BF8
:1001A0008BBB08952BB381E090E002C0880F991FAC
:1001B0006A95E2F7809582238BBB0895413059F40C
:1001C00028B381E090E002C0880F991F6A95E2F79A
:1001D000822B88BB089528B381E090E002C0880F8D
:1001E000991F6A95E2F78095822388BB0895413074
:1001F00059F425B381E090E002C0880F991F6A95F9
:10020000E2F7822B85BB089525B381E090E002C020
:10021000880F991F6A95E2F78095822385BB089520
:10022000413059F422B381E090E002C0880F991F59
:100230006A95E2F7822B82BB089522B381E090E0B9
:1002400002C0880F991F6A95E2F78095822382BBCE
:100250000895823481F018F4813431F008958334A4
:1002600089F08434B1F00895613019F48FEF8ABBBE
:1002700008951ABA0895613019F48FEF87BB089575
:1002800017BA0895613019F48FEF84BB089514BA3A
:100290000895613019F48FEF81BB089511BA089564
:1002A000823459F018F4813431F00895833439F0F0
:1002B000843439F008956BBB089568BB089565BB1D
:1002C000089562BB089541E060E082E40E94B900B5
:1002D0008FE99FE00197F1F700C0000040E060E087
:1002E00082E40E94B9008FE99FE00197F1F700C016
:1002F00000000895682F81E40E94500140E061E011
:1003000082E40E94B9000E94630108952FEF81EEFC
:1003100094E0215080409040E1F700C0000061E08F
:1003200081E40E94290141E060E082E40E944900EA
:1003300041E062E082E40E94490041E061E082E441
:100340000E94490040E062E082E40E94B90088E334
:100350000E947A018FEC97E00197F1F700C000004E
:100360008EE00E947A018FEC97E00197F1F700C0D0
:10037000000081E00E947A018FE19EE40197F1F78D
:1003800000C0000086E00E947A018FEC97E00197A0
:10039000F1F700C000000895682F81E40E94500129
:1003A00041E061E082E40E94B9000E946301089587
:1003B000CF93DF93EC0103C00E94CC01219688818A
:1003C0008111FACFDF91CF91089581E00E947A01E7
:1003D0008FE19EE40197F1F700C0000008959FEFC0
:1003E000980F923070F4613170F4662371F08130AF
:1003F00019F42FE7260F0AC0823041F42FEB260FA5
:1004000005C020E803C020E801C020E8822F0E9438
:100410007A018FEC97E00197F1F700C00000089592
:1004200041E00E944900089541E00E94B90008950A
:1004300040E00E94B900089580E50E94C9020E9430
:10044000860160E084E40E94100261E084E40E947E
:10045000100262E084E40E94100260E084E40E94E2
:10046000180261E084E40E94180262E084E40E94C1
:1004700018020E94E50180E690E00E94D80168E041
:1004800081E00E94EF0188E30E94CC01C8E015C022
:1004900060E084E40E94140280917400843668F065
:1004A00010927400DFEFDC0F68E081E00E94EF0142
:1004B0008FE28C0F0E94CC01CD2FC111E9CF60E0FB
:1004C00084E40E9418020E94E50187E690E00E9401
:1004D000D80169E081E00E94EF0182E30E94CC0133
:1004E000C2E015C061E084E40E94140280917400AF
:1004F000843668F010927400DFEFDC0F69E081E071
:100500000E94EF018FE28C0F0E94CC01CD2FC11110
:10051000E9CF61E084E40E9418020E94E5018FE6C1
:1005200090E00E94D80165E081E00E94EF0185E340
:100530000E94CC01C5E015C062E084E40E94140270
:1005400080917400843668F010927400DFEFDC0F45
:1005500065E081E00E94EF018FE28C0F0E94CC01E8
:10056000CD2FC111E9CF62E084E40E94180275CF5B
:100570001F920F920FB60F9211248F9380917400E7
:100580008F5F809374008F910F900FBE0F901F901C
:10059000189593B7986093BF93B79F7B93BF789458
:1005A00093B7916093BF93B79D7F93BF93B79460C8
:1005B00093BF8CBF89B7826089BF0895F894FFCF3D
:1005C000677265656E3A0079656C6C6F773A007298
:0405D00065643A0024
:00000001FF
