S012000074696D6572305F6578312E7372656354
S11300000C942A000C9447000C9447000C9447006D
S11300100C9447000C9447000C9447000C94470040
S11300200C9447000C9447000C94F9010C9447007D
S11300300C9447000C9447000C9447000C94470020
S11300400C9447000C9447000C9447000C94470010
S11300500C94470011241FBECFE5D8E0DEBFCDBF0E
S113006010E0A0E6B0E0E8EEF4E002C005900D92E6
S1130070AA36B107D9F720E0AAE6B0E001C01D9284
S1130080AE36B207E1F70E94A1010C9472020C94FF
S11300900000823419F118F4813439F0089583345E
S11300A0B1F1843409F44CC00895413059F42AB3B1
S11300B081E090E002C0880F991F6A95E2F7822BD5
S11300C08ABB08952AB381E090E002C0880F991F8B
S11300D06A95E2F7809582238ABB0895413059F4EA
S11300E027B381E090E002C0880F991F6A95E2F778
S11300F0822B87BB089527B381E090E002C0880F6C
S1130100991F6A95E2F78095822387BB0895413051
S113011059F424B381E090E002C0880F991F6A95D6
S1130120E2F7822B84BB089524B381E090E002C0FF
S1130130880F991F6A95E2F78095822384BB0895FE
S1130140413059F421B381E090E002C0880F991F37
S11301506A95E2F7822B81BB089521B381E090E098
S113016002C0880F991F6A95E2F78095822381BBAC
S11301700895823419F118F4813439F008958334E0
S1130180B1F1843409F44CC00895413059F42BB3CF
S113019081E090E002C0880F991F6A95E2F7822BF4
S11301A08BBB08952BB381E090E002C0880F991FA8
S11301B06A95E2F7809582238BBB0895413059F408
S11301C028B381E090E002C0880F991F6A95E2F796
S11301D0822B88BB089528B381E090E002C0880F89
S11301E0991F6A95E2F78095822388BB0895413070
S11301F059F425B381E090E002C0880F991F6A95F5
S1130200E2F7822B85BB089525B381E090E002C01C
S1130210880F991F6A95E2F78095822385BB08951C
S1130220413059F422B381E090E002C0880F991F55
S11302306A95E2F7822B82BB089522B381E090E0B5
S113024002C0880F991F6A95E2F78095822382BBCA
S113025008958234A1F018F4813431F00895833480
S1130260C9F0843411F108952BB381E090E002C009
S1130270880F991F6A95E2F782278BBB089528B3EC
S113028081E090E002C0880F991F6A95E2F7822707
S113029088BB089525B381E090E002C0880F991FC0
S11302A06A95E2F7822785BB089522B381E090E046
S11302B002C0880F991F6A95E2F7822782BB0895CE
S11302C0823481F018F4813431F00895833489F054
S11302D08434B1F00895613019F48FEF8ABB089526
S11302E01ABA0895613019F48FEF87BB089517BACD
S11302F00895613019F48FEF84BB089514BA0895FA
S1130300613019F48FEF81BB089511BA08958234D6
S113031059F018F4813431F00895833439F0843479
S113032039F008956BBB089568BB089565BB0895C3
S113033062BB089541E00E94490008950E9429018A
S1130340089580E50E94430280E40E94580260E020
S113035081E40E949A0161E081E40E949A0162E0D2
S113036081E40E949A0184E490E00E941A0241E030
S113037050E060E070E083E490E00E94490041E0D6
S113038050E061E070E083E490E00E94490041E0C5
S113039050E060E070E083E490E00E94B90066E021
S11303A070E084E490E00E941E0280916D00843627
S11303B030F060E081E40E949E0110926D00809113
S11303C06C00883C30F061E081E40E949E01109250
S11303D06C0080916A0090916B008C32914028F3FC
S11303E062E081E40E949E0110926B0010926A0008
S11303F0DCCF1F920F920FB60F9211248F939F930D
S113040080916D008F5F80936D0080916C008F5F91
S113041080936C0080916A0090916B000196909398
S11304206B0080936A009F918F910F900FBE0F9085
S11304301F90189561E00E9460010895CF93DF93A7
S1130440CDB7DEB72A970FB6F894DEBF0FBECDBF87
S11304509AE0E0E6F0E0DE01119601900D929A95A3
S1130460E1F7E1E0F0E0EC0FFD1FE60FF11D608124
S11304700E9487012A960FB6F894DEBF0FBECDBF47
S1130480DF91CF91089593B7986093BF93B79F7B03
S113049093BF789493B7916093BF93B79D7F93BFB5
S11304A093B7946093BF8CBF89B7826089BF089566
S11304B097B3986097BB93B7986093BF93B79F7BAC
S11304C093BF8CBF83B7816083BF83B78D7F83BFA6
S11304D083B7846083BF83B7806183BF83B78F7D15
S10B04E083BF0895F894FFCFD7
S10D04E83F065B4F666D7D477F6F92
S9030000FC
