:100000000C942A000C9447000C9447000C94470071
:100010000C9447000C9447000C9447000C94470044
:100020000C9447000C9447000C94E6010C94470094
:100030000C9447000C9447000C9447000C94470024
:100040000C9447000C9447000C9447000C94470014
:100050000C94470011241FBECFE5D8E0DEBFCDBF12
:1000600010E0A0E6B0E0E8E7F4E002C005900D92F1
:10007000AA36B107D9F720E0AAE6B0E001C01D9288
:10008000AD36B207E1F70E9463010C943A020C947A
:100090000000823419F118F4813439F00895833462
:1000A000B1F1843409F44CC00895413059F42AB3B5
:1000B00081E090E002C0880F991F6A95E2F7822BD9
:1000C0008ABB08952AB381E090E002C0880F991F8F
:1000D0006A95E2F7809582238ABB0895413059F4EE
:1000E00027B381E090E002C0880F991F6A95E2F77C
:1000F000822B87BB089527B381E090E002C0880F70
:10010000991F6A95E2F78095822387BB0895413055
:1001100059F424B381E090E002C0880F991F6A95DA
:10012000E2F7822B84BB089524B381E090E002C003
:10013000880F991F6A95E2F78095822384BB089502
:10014000413059F421B381E090E002C0880F991F3B
:100150006A95E2F7822B81BB089521B381E090E09C
:1001600002C0880F991F6A95E2F78095822381BBB0
:100170000895823419F118F4813439F008958334E4
:10018000B1F1843409F44CC00895413059F42BB3D3
:1001900081E090E002C0880F991F6A95E2F7822BF8
:1001A0008BBB08952BB381E090E002C0880F991FAC
:1001B0006A95E2F7809582238BBB0895413059F40C
:1001C00028B381E090E002C0880F991F6A95E2F79A
:1001D000822B88BB089528B381E090E002C0880F8D
:1001E000991F6A95E2F78095822388BB0895413074
:1001F00059F425B381E090E002C0880F991F6A95F9
:10020000E2F7822B85BB089525B381E090E002C020
:10021000880F991F6A95E2F78095822385BB089520
:10022000413059F422B381E090E002C0880F991F59
:100230006A95E2F7822B82BB089522B381E090E0B9
:1002400002C0880F991F6A95E2F78095822382BBCE
:100250000895823481F018F4813431F008958334A4
:1002600089F08434B1F00895613019F48FEF8ABBBE
:1002700008951ABA0895613019F48FEF87BB089575
:1002800017BA0895613019F48FEF84BB089514BA3A
:100290000895613019F48FEF81BB089511BA089564
:1002A000823459F018F4813431F00895833439F0F0
:1002B000843439F008956BBB089568BB089565BB1D
:1002C000089562BB089580E50E94250281E40E94A2
:1002D000FC0141E050E060E070E082E490E00E94C8
:1002E000490041E050E061E070E082E490E00E946B
:1002F000490041E050E060E070E082E490E00E945C
:10030000B90041E050E061E070E082E490E00E94DA
:10031000B90040E050E060E070E082E490E00E94CC
:10032000B90080916C006DEC869F612D112466955B
:100330006695669581E40E94000280916A00882398
:10034000E1F310926A0041E050E060E070E082E486
:1003500090E00E94B90041E050E061E070E082E48A
:1003600090E00E94B90040E050E061E070E082E47B
:1003700090E00E94B90060916C008DEC689F812D27
:100380001124869586958695880F982F990F990F39
:10039000890F681B81E40E94000280916A00882313
:1003A000E1F310926A0080916B00843638F010926D
:1003B0006B0080916C008F5F80936C0080916C006B
:1003C000843608F496CF10926C0093CF1F920F9250
:1003D0000FB60F9211248F9380916B008F5F8093E3
:1003E0006B0080916A008F5F80936A008F910F90FD
:1003F0000FBE0F901F90189561E00E94290108958B
:10040000CF93DF93CDB7DEB72A970FB6F894DEBF50
:100410000FBECDBF9AE0E0E6F0E0DE01119601905C
:100420000D929A95E1F7E1E0F0E0EC0FFD1FE60F89
:10043000F11D60810E9450012A960FB6F894DEBF2C
:100440000FBECDBFDF91CF91089593B7986093BF52
:1004500093B79F7B93BF789493B7916093BF93B703
:100460009D7F93BF93B7946093BF8CBF89B7826021
:0804700089BF0895F894FFCF45
:0A0478003F065B4F666D7D477F6F06
:00000001FF
