S0140000536576656E5365676D656E742E737265633C
S11300000C942A000C943F000C943F000C943F0085
S11300100C943F000C943F000C943F000C943F0060
S11300200C943F000C943F000C943F000C943F0050
S11300300C943F000C943F000C943F000C943F0040
S11300400C943F000C943F000C943F000C943F0030
S11300500C943F0011241FBECFE5D8E0DEBFCDBF16
S113006010E0A0E6B0E0E2EDF3E002C005900D92EE
S1130070AA36B107D9F70E9479010C94E7010C94D0
S1130080000040E00E94480008950E94B8000895CE
S1130090823419F118F4813439F008958334B1F1BC
S11300A0843409F44CC00895413059F42AB381E0F2
S11300B090E002C0880F991F6A95E2F7822B8ABBF1
S11300C008952AB381E090E002C0880F991F6A95D1
S11300D0E2F7809582238ABB0895413059F427B30F
S11300E081E090E002C0880F991F6A95E2F7822BA5
S11300F087BB089527B381E090E002C0880F991F61
S11301006A95E2F78095822387BB0895413059F4BC
S113011024B381E090E002C0880F991F6A95E2F74A
S1130120822B84BB089524B381E090E002C0880F41
S1130130991F6A95E2F78095822384BB0895413024
S113014059F421B381E090E002C0880F991F6A95A9
S1130150E2F7822B81BB089521B381E090E002C0D5
S1130160880F991F6A95E2F78095822381BB0895D1
S11301708234F9F018F4813439F059C0833471F1C0
S1130180843409F440C053C049B381E090E09C0139
S1130190062E02C0220F331F0A94E2F7842F90E048
S11301A08223932302C0969587956A95E2F7982F48
S11301B03EC046B381E090E09C01062E02C0220FAF
S11301C0331F0A94E2F7842F90E08223932302C022
S11301D0969587956A95E2F7982F29C043B381E0F5
S11301E090E09C01062E02C0220F331F0A94E2F70E
S11301F0842F90E08223932302C0969587956A9575
S1130200E2F7982F14C040B381E090E09C01062EE1
S113021002C0220F331F0A94E2F7842F90E0822356
S1130220932302C0969587956A95E2F7982F892FB4
S11302300895823481F018F4813431F008958334C0
S113024089F08434B1F00895613019F48FEF8ABBDA
S113025008951ABA0895613019F48FEF87BB089591
S113026017BA0895613019F48FEF84BB089514BA56
S11302700895613019F48FEF81BB089511BA089580
S1130280823451F018F4813431F00895833429F024
S1130290843429F008956BBB68BB65BB089562BBC9
S11302A008956F70823481F018F4813431F0089528
S11302B0833489F08434B1F008958BB3807F8BBB91
S11302C08BB3682B6BBB089588B3807F88BB88B3DE
S11302D0682B68BB089585B3807F85BB85B3682B85
S11302E065BB089582B3807F82BB82B3682B62BBF7
S11302F0089583E40E94A70184E40E94D00160E091
S113030070E081E490E00E944100C0E0D0E060E051
S113031070E081E490E00E9445008130C1F7CA306A
S1130320D10511F4C0E0D0E06C2F83E40E94AB014E
S11303306C2F84E40E94E4012FE78AE196E02150C7
S113034080409040E1F700C000002196E0CF61E0DA
S11303500E9419010895CF93DF93CDB7DEB72A9792
S11303600FB6F894DEBF0FBECDBF9AE0E0E6F0E032
S1130370DE01119601900D929A95E1F7E1E0F0E02B
S1130380EC0FFD1FE60FF11D60810E9440012A96CB
S11303900FB6F894DEBF0FBECDBFDF91CF910895A5
S11303A01F93CF93DF93182FC0E0D0E006C041E045
S11303B06C2F812F0E9448002196C430D105BCF3D4
S11303C0DF91CF911F9108950E9451010895F894EF
S10503D0FFCF59
S10D03D23F065B4F666D7D477F6FA9
S9030000FC
