:100000000C942A000C9434000C9434000C943400AA
:100010000C9434000C9434000C9434000C94340090
:100020000C9434000C9434000C9434000C94340080
:100030000C9434000C9434000C9434000C94340070
:100040000C9434000C9434000C9434000C94340060
:100050000C94340011241FBECFE5D8E0DEBFCDBF25
:100060000E94D0000C94E2000C94000087B987B184
:10007000806487B987B18F7787B987B18F7D87B95A
:1000800086B1806886B986B1846086B986B182609F
:1000900086B986B18E7F86B9089586B1806486B9A7
:1000A000349BFECF86B1806186B924B185B190E0E2
:1000B000982F8827822B0895823419F118F48134FF
:1000C00039F008958334B1F1843409F44CC00895B3
:1000D000413059F42AB381E090E002C0880F991FA3
:1000E0006A95E2F7822B8ABB08952AB381E090E0FB
:1000F00002C0880F991F6A95E2F7809582238ABB18
:100100000895413059F427B381E090E002C0880F90
:10011000991F6A95E2F7822B87BB089527B381E088
:1001200090E002C0880F991F6A95E2F780958223BC
:1001300087BB0895413059F424B381E090E002C0B8
:10014000880F991F6A95E2F7822B84BB089524B328
:1001500081E090E002C0880F991F6A95E2F78095D0
:10016000822384BB0895413059F421B381E090E0AB
:1001700002C0880F991F6A95E2F7822B81BB089510
:1001800021B381E090E002C0880F991F6A95E2F7E1
:100190008095822381BB089541E00E945C00089510
:1001A00081E00E943600C0E0D0E005C06C2F84E4FE
:1001B0000E94CC002196C830D105C4F30E944D00A6
:0801C00082BBFCCFF894FFCFD5
:00000001FF
