S00E00006B65794261642E73726563C6
S11300000C942A000C943F000C943F000C943F0085
S11300100C943F000C943F000C943F000C943F0060
S11300200C943F000C943F000C943F000C943F0050
S11300300C943F000C943F000C943F000C943F0040
S11300400C943F000C943F000C943F000C943F0030
S11300500C943F0011241FBECFE5D8E0DEBFCDBF16
S113006010E0A0E6B0E0E0EDF6E002C005900D92ED
S1130070A037B107D9F70E944D030C9466030C9482
S11300800000823419F118F4813439F0089583346E
S1130090B1F1843409F44CC00895413059F42AB3C1
S11300A081E090E002C0880F991F6A95E2F7822BE5
S11300B08ABB08952AB381E090E002C0880F991F9B
S11300C06A95E2F7809582238ABB0895413059F4FA
S11300D027B381E090E002C0880F991F6A95E2F788
S11300E0822B87BB089527B381E090E002C0880F7C
S11300F0991F6A95E2F78095822387BB0895413062
S113010059F424B381E090E002C0880F991F6A95E6
S1130110E2F7822B84BB089524B381E090E002C00F
S1130120880F991F6A95E2F78095822384BB08950E
S1130130413059F421B381E090E002C0880F991F47
S11301406A95E2F7822B81BB089521B381E090E0A8
S113015002C0880F991F6A95E2F78095822381BBBC
S113016008958234F9F018F4813439F059C0833495
S113017071F1843409F440C053C049B381E090E084
S11301809C01062E02C0220F331F0A94E2F7842F2B
S113019090E08223932302C0969587956A95E2F7AF
S11301A0982F3EC046B381E090E09C01062E02C029
S11301B0220F331F0A94E2F7842F90E082239323C3
S11301C002C0969587956A95E2F7982F29C043B3A4
S11301D081E090E09C01062E02C0220F331F0A9496
S11301E0E2F7842F90E08223932302C096958795AB
S11301F06A95E2F7982F14C040B381E090E09C0127
S1130200062E02C0220F331F0A94E2F7842F90E0D7
S11302108223932302C0969587956A95E2F7982FD7
S1130220892F0895823419F118F4813439F008952E
S11302308334B1F1843409F44CC00895413059F445
S11302402BB381E090E002C0880F991F6A95E2F712
S1130250822B8BBB08952BB381E090E002C0880F02
S1130260991F6A95E2F7809582238BBB08954130EC
S113027059F428B381E090E002C0880F991F6A9571
S1130280E2F7822B88BB089528B381E090E002C096
S1130290880F991F6A95E2F78095822388BB089599
S11302A0413059F425B381E090E002C0880F991FD2
S11302B06A95E2F7822B85BB089525B381E090E02F
S11302C002C0880F991F6A95E2F78095822385BB47
S11302D00895413059F422B381E090E002C0880FC0
S11302E0991F6A95E2F7822B82BB089522B381E0BD
S11302F090E002C0880F991F6A95E2F780958223E7
S113030082BB0895823481F018F4813431F0089569
S1130310833489F08434B1F00895613019F48FEF97
S11303208ABB08951ABA0895613019F48FEF87BB18
S1130330089517BA0895613019F48FEF84BB0895B6
S113034014BA0895613019F48FEF81BB089511BA7E
S11303500895823459F018F4813431F008958334C7
S113036039F0843439F008956BBB089568BB08955F
S113037065BB089562BB0895823419F118F4813481
S113038039F008958334B1F1843409F44CC00895EC
S1130390413059F42BB381E090E002C0880F991FDB
S11303A06A95E2F7822B8BBB08952BB381E090E032
S11303B002C0880F991F6A95E2F7809582238BBB50
S11303C00895413059F428B381E090E002C0880FC9
S11303D0991F6A95E2F7822B88BB089528B381E0C0
S11303E090E002C0880F991F6A95E2F780958223F6
S11303F088BB0895413059F425B381E090E002C0F0
S1130400880F991F6A95E2F7822B85BB089525B35F
S113041081E090E002C0880F991F6A95E2F7809509
S1130420822385BB0895413059F422B381E090E0E2
S113043002C0880F991F6A95E2F7822B82BB089548
S113044022B381E090E002C0880F991F6A95E2F719
S11304508095822382BB089541E060E084E40E9499
S1130460410041E061E084E40E94410041E062E037
S113047084E40E94410041E063E084E40E9441007E
S113048040E064E084E40E94410040E065E084E4EC
S11304900E94410040E066E084E40E94410040E0A4
S11304A067E084E40E94410041E064E084E40E9447
S11304B0BC0141E065E084E40E94BC0141E066E0E7
S11304C084E40E94BC0141E067E084E40E94BC0132
S11304D00895EF92FF920F931F93CF93DF93CDB7BD
S11304E0DEB760970FB6F894DEBF0FBECDBF80E1D4
S11304F0E0E6F0E0DE01119601900D928A95E1F7B5
S1130500EE24EA94F12C39C041E060E084E40E94D6
S1130510120141E061E084E40E94120141E062E0E2
S113052084E40E94120141E063E084E40E94120129
S113053040E06F2D84E40E94120110E019C064E0D1
S1130540610F84E40E94B100082F811110C0EF2DC7
S1130550F0E0EE0FFF1FEE0FFF1F81E090E08C0F25
S11305609D1FE80FF91FE10FF11DE08003C01F5F1D
S1130570143028F3002321F0F39493E09F1520F620
S11305808E2D60960FB6F894DEBF0FBECDBFDF91FF
S1130590CF911F910F91FF90EF90089541E060E09B
S11305A082E40E9412018FE99FE00197F1F700C0F5
S11305B0000040E060E082E40E9412018FE99FE0C5
S11305C00197F1F700C000000895682F81E40E94AC
S11305D0A90140E061E082E40E9412010E94CE027F
S11305E008952FEF81EE94E0215080409040E1F790
S11305F000C0000061E081E40E94820141E060E00B
S113060082E40E94410041E062E082E40E944100F1
S113061041E061E082E40E94410040E062E082E463
S11306200E94120188E30E94E5028FEC97E0019793
S1130630F1F700C000008EE00E94E5028FEC97E025
S11306400197F1F700C0000081E00E94E5028FE10C
S11306509EE40197F1F700C0000086E00E94E502E5
S11306608FEC97E00197F1F700C000000895682F20
S113067081E40E94A90141E061E082E40E94120148
S11306800E94CE02089581E00E94E5028FE19EE47B
S11306900197F1F700C0000008950E94F1020E9442
S11306A02C020E9469028F3FE1F3813419F40E9405
S11306B0430302C00E9437032FE78AE196E02150EA
S11306C080409040E1F700C00000EBCFF894FFCFEA
S11306D03738392F3435362A3132332D41303D2BDA
S9030000FC
