:100000000C942A000C943F000C943F000C943F0089
:100010000C943F000C943F000C943F000C943F0064
:100020000C943F000C943F000C943F000C943F0054
:100030000C943F000C943F000C943F000C943F0044
:100040000C943F000C943F000C943F000C943F0034
:100050000C943F0011241FBECFE5D8E0DEBFCDBF1A
:1000600010E0A0E6B0E0E0E4F9E002C005900D92F7
:10007000A23DB107D9F70E948E030C949E040C9404
:100080000000823419F118F4813439F00895833472
:10009000B1F1843409F44CC00895413059F42AB3C5
:1000A00081E090E002C0880F991F6A95E2F7822BE9
:1000B0008ABB08952AB381E090E002C0880F991F9F
:1000C0006A95E2F7809582238ABB0895413059F4FE
:1000D00027B381E090E002C0880F991F6A95E2F78C
:1000E000822B87BB089527B381E090E002C0880F80
:1000F000991F6A95E2F78095822387BB0895413066
:1001000059F424B381E090E002C0880F991F6A95EA
:10011000E2F7822B84BB089524B381E090E002C013
:10012000880F991F6A95E2F78095822384BB089512
:10013000413059F421B381E090E002C0880F991F4B
:100140006A95E2F7822B81BB089521B381E090E0AC
:1001500002C0880F991F6A95E2F78095822381BBC0
:1001600008958234F9F018F4813439F059C0833499
:1001700071F1843409F440C053C049B381E090E088
:100180009C01062E02C0220F331F0A94E2F7842F2F
:1001900090E08223932302C0969587956A95E2F7B3
:1001A000982F3EC046B381E090E09C01062E02C02D
:1001B000220F331F0A94E2F7842F90E082239323C7
:1001C00002C0969587956A95E2F7982F29C043B3A8
:1001D00081E090E09C01062E02C0220F331F0A949A
:1001E000E2F7842F90E08223932302C096958795AF
:1001F0006A95E2F7982F14C040B381E090E09C012B
:10020000062E02C0220F331F0A94E2F7842F90E0DB
:100210008223932302C0969587956A95E2F7982FDB
:10022000892F0895823419F118F4813439F0089532
:100230008334B1F1843409F44CC00895413059F449
:100240002BB381E090E002C0880F991F6A95E2F716
:10025000822B8BBB08952BB381E090E002C0880F06
:10026000991F6A95E2F7809582238BBB08954130F0
:1002700059F428B381E090E002C0880F991F6A9575
:10028000E2F7822B88BB089528B381E090E002C09A
:10029000880F991F6A95E2F78095822388BB08959D
:1002A000413059F425B381E090E002C0880F991FD6
:1002B0006A95E2F7822B85BB089525B381E090E033
:1002C00002C0880F991F6A95E2F78095822385BB4B
:1002D0000895413059F422B381E090E002C0880FC4
:1002E000991F6A95E2F7822B82BB089522B381E0C1
:1002F00090E002C0880F991F6A95E2F780958223EB
:1003000082BB0895823481F018F4813431F008956D
:10031000833489F08434B1F00895613019F48FEF9B
:100320008ABB08951ABA0895613019F48FEF87BB1C
:10033000089517BA0895613019F48FEF84BB0895BA
:1003400014BA0895613019F48FEF81BB089511BA82
:100350000895823459F018F4813431F008958334CB
:1003600039F0843439F008956BBB089568BB089563
:1003700065BB089562BB0895823419F118F4813485
:1003800039F008958334B1F1843409F44CC00895F0
:10039000413059F42BB381E090E002C0880F991FDF
:1003A0006A95E2F7822B8BBB08952BB381E090E036
:1003B00002C0880F991F6A95E2F7809582238BBB54
:1003C0000895413059F428B381E090E002C0880FCD
:1003D000991F6A95E2F7822B88BB089528B381E0C4
:1003E00090E002C0880F991F6A95E2F780958223FA
:1003F00088BB0895413059F425B381E090E002C0F4
:10040000880F991F6A95E2F7822B85BB089525B363
:1004100081E090E002C0880F991F6A95E2F780950D
:10042000822385BB0895413059F422B381E090E0E6
:1004300002C0880F991F6A95E2F7822B82BB08954C
:1004400022B381E090E002C0880F991F6A95E2F71D
:100450008095822382BB08958EBB1FBA6DBB8CB37F
:1004600084608CBB8CB382608CBBE199FECF089515
:100470008EBB1FBA8CB381608CBB8DB3089541E0F5
:1004800060E084E40E94410041E061E084E40E9475
:10049000410041E062E084E40E94410041E063E009
:1004A00084E40E94410040E064E084E40E94410052
:1004B00040E065E084E40E94410040E066E084E4BE
:1004C0000E94410040E067E084E40E94410041E076
:1004D00064E084E40E94BC0141E065E084E40E94A1
:1004E000BC0141E066E084E40E94BC0141E067E0B9
:1004F00084E40E94BC010895EF92FF920F931F9332
:10050000CF93DF93CDB7DEB760970FB6F894DEBF19
:100510000FBECDBF80E1E0E6F0E0DE011196019074
:100520000D928A95E1F7EE24EA94F12C39C041E06E
:1005300060E084E40E94120141E061E084E40E94F2
:10054000120141E062E084E40E94120141E063E0B4
:1005500084E40E94120140E06F2D84E40E941201A5
:1005600010E019C064E0610F84E40E94B100082F1C
:10057000811110C0EF2DF0E0EE0FFF1FEE0FFF1FF7
:1005800081E090E08C0F9D1FE80FF91FE10FF11D36
:10059000E08003C01F5F143028F3002321F0F394A0
:1005A00093E09F1520F68E2D60960FB6F894DEBF6F
:1005B0000FBECDBFDF91CF911F910F91FF90EF90B4
:1005C000089541E060E082E40E9412018FE99FE01B
:1005D0000197F1F700C0000040E060E082E40E9473
:1005E00012018FE99FE00197F1F700C00000089524
:1005F000682F81E40E94A90140E061E082E40E944A
:1006000012010E94E10208952FEF81EE94E0215043
:1006100080409040E1F700C0000061E081E40E946A
:10062000820141E060E082E40E94410041E062E03A
:1006300082E40E94410041E061E082E40E944100C6
:1006400040E062E082E40E94120188E30E94F80226
:100650008FEC97E00197F1F700C000008EE00E9458
:10066000F8028FEC97E00197F1F700C0000081E0FD
:100670000E94F8028FE19EE40197F1F700C00000AC
:1006800086E00E94F8028FEC97E00197F1F700C036
:1006900000000895682F81E40E94A90141E061E013
:1006A00082E40E9412010E94E1020895CF93DF9339
:1006B000EC0103C00E944A03219688818111FACF80
:1006C000DF91CF91089581E00E94F8028FE19EE4CE
:1006D0000197F1F700C0000008959FEF980F923046
:1006E00070F4613170F4662371F0813019F42FE7F2
:1006F000260F0AC0823041F42FEB260F05C020E8F8
:1007000003C020E801C020E8822F0E94F8028FEC8D
:1007100097E00197F1F700C000000895EF92FF9273
:100720000F931F93CF93DF9300D000D0CDB7DEB7E8
:100730000E9404030E943F0280E790E00E9456035B
:100740002FEF89E698E1215080409040E1F700C00A
:1007500000000E94630380E290E00E9438028F3F15
:10076000C9F588E790E00E945603E12CF12C29C0DE
:100770000E947C02182F8F3FD9F30E944A032FEF6B
:1007800084E39CE0215080409040E1F700C00000ED
:100790006CE06E0D81E00E946D038AE20E944A03C4
:1007A0002FEF84E39CE0215080409040E1F700C0AF
:1007B0000000612FC70181960E942C022FEFE21AE0
:1007C000F20A84E0E816F1049CF260E080E290E036
:1007D0000E942C028FEF89838A838B838C83689499
:1007E000FF24F1F8E12C9AC00E94630384E890E0B2
:1007F0000E94560300E010E029C00E947C02E1E064
:10080000F0E0EC0FFD1FE00FF11F80838F3FA9F395
:100810000E944A039FEF24E38CE0915020408040E7
:10082000E1F700C000006CE0600F81E00E946D0302
:100830008AE20E944A039FEF24E38CE0915020401B
:100840008040E1F700C000000F5F1F4F043011052A
:10085000A4F281E290E00E9438029981891326C0B7
:1008600082E290E00E9438029A8189131FC083E2DD
:1008700090E00E9438029B81891318C084E290E0C6
:100880000E9438029C81891311C00E94630380E991
:1008900090E00E94560361E082E00E946D038BE9C4
:1008A00090E00E945603EE24E39438C01FEF1F0D22
:1008B00021F10E9463038AEA90E00E9456039FEFB1
:1008C00029E688E1915020408040E1F700C0000017
:1008D0000E94630385EB90E00E9456038FE28F0D28
:1008E0000E944A039FEF29E688E191502040804012
:1008F000E1F700C00000F12E11C00E9463038AEAF4
:1009000090E00E94560361E082E00E946D0383EC58
:1009100090E00E945603F12EEE24E394EE2009F4B9
:1009200063CF80E090E00F900F900F900F90DF91D9
:10093000CF911F910F91FF90EF900895F894FFCF02
:100940003738392F3435362A3132332D41303D2B6B
:1009500077656C636F6D6500456E746572205061DC
:1009600073733A00636865636B20706173733A0058
:1009700072696768742070617373007361666520C3
:100980006973206F70656E65640077726F6E6720A3
:10099000706173730023207472696573206C6566DF
:1009A000743A007361666520697320636C6F7365C8
:0209B0006400E1
:00000001FF
