S01000007461736B314B69742E7372656308
S11300000C942A000C944A030C9447000C94470067
S11300100C9447000C9447000C9447000C94470040
S11300200C9447000C9447000C9447000C94470030
S11300300C9447000C9447000C9447000C94470020
S11300400C9447000C9447000C9447000C94470010
S11300500C94470011241FBECFE5D8E0DEBFCDBF0E
S113006010E0A0E6B0E0E6E2F7E002C005900D92F1
S1130070A437B107D9F720E0A4E7B0E001C01D928E
S1130080A637B207E1F70E94E9020C9491030C949D
S1130090000040E00E94500008950E94C0000895AE
S11300A0823419F118F4813439F008958334B1F1AC
S11300B0843409F44CC00895413059F42AB381E0E2
S11300C090E002C0880F991F6A95E2F7822B8ABBE1
S11300D008952AB381E090E002C0880F991F6A95C1
S11300E0E2F7809582238ABB0895413059F427B3FF
S11300F081E090E002C0880F991F6A95E2F7822B95
S113010087BB089527B381E090E002C0880F991F50
S11301106A95E2F78095822387BB0895413059F4AC
S113012024B381E090E002C0880F991F6A95E2F73A
S1130130822B84BB089524B381E090E002C0880F31
S1130140991F6A95E2F78095822384BB0895413014
S113015059F421B381E090E002C0880F991F6A9599
S1130160E2F7822B81BB089521B381E090E002C0C5
S1130170880F991F6A95E2F78095822381BB0895C1
S11301808234F9F018F4813439F059C0833471F1B0
S1130190843409F440C053C049B381E090E09C0129
S11301A0062E02C0220F331F0A94E2F7842F90E038
S11301B08223932302C0969587956A95E2F7982F38
S11301C03EC046B381E090E09C01062E02C0220F9F
S11301D0331F0A94E2F7842F90E08223932302C012
S11301E0969587956A95E2F7982F29C043B381E0E5
S11301F090E09C01062E02C0220F331F0A94E2F7FE
S1130200842F90E08223932302C0969587956A9564
S1130210E2F7982F14C040B381E090E09C01062ED1
S113022002C0220F331F0A94E2F7842F90E0822346
S1130230932302C0969587956A95E2F7982F892FA4
S11302400895823419F118F4813439F0089583340F
S1130250B1F1843409F44CC00895413059F42BB3FE
S113026081E090E002C0880F991F6A95E2F7822B23
S11302708BBB08952BB381E090E002C0880F991FD7
S11302806A95E2F7809582238BBB0895413059F437
S113029028B381E090E002C0880F991F6A95E2F7C5
S11302A0822B88BB089528B381E090E002C0880FB8
S11302B0991F6A95E2F78095822388BB089541309F
S11302C059F425B381E090E002C0880F991F6A9524
S11302D0E2F7822B85BB089525B381E090E002C04C
S11302E0880F991F6A95E2F78095822385BB08954C
S11302F0413059F422B381E090E002C0880F991F85
S11303006A95E2F7822B82BB089522B381E090E0E4
S113031002C0880F991F6A95E2F78095822382BBF9
S11303200895823469F018F4813431F008958334E7
S113033059F0843469F008958BB368236BBB089536
S113034088B3682368BB089585B3682365BB0895A3
S113035082B3682362BB0895823469F018F481344F
S113036031F00895833459F0843469F008958BB3DF
S1130370682B6BBB089588B3682B68BB089585B35D
S1130380682B65BB089582B3682B62BB08959BB745
S113039090649BBF823081F018F4813031F021C029
S11303A0833089F08430B1F01CC085B78E7F85BF5F
S11303B085B78D7F85BF089585B7816085BF85B773
S11303C08D7F85BF089585B78E7F85BF85B7826091
S11303D085BF089585B7816085BF85B7826085BF75
S11303E0089585B78E7F85BF85B78D7F85BF0895B6
S11303F07894089541E060E082E40E94500041E076
S113040061E082E40E94500041E062E082E40E94E4
S1130410500041E064E082E40E94500041E065E065
S113042082E40E94500041E066E082E40E945000B1
S113043041E062E081E40E94500041E063E081E435
S11304400E94500008950F931F93CF93DF93CDB76D
S1130450DEB764970FB6F894DEBF0FBECDBF082F8A
S1130460162F68EE82E40E94910184E1E0E6F0E058
S1130470DE01119601900D928A95E1F70230E9F0C0
S113048018F4013031F054C0033059F10430E9F16B
S11304904FC041E063E081E40E942101E12FF0E0DC
S11304A0EE0FFF1F81E090E08C0F9D1FE80FF91FF6
S11304B0608182E40E94AC013BC041E062E081E4DF
S11304C00E942101E12FF0E0EE0FFF1F81E090E098
S11304D08C0F9D1FE80FF91F608182E40E94AC011C
S11304E027C041E065E082E40E942101E12FF0E0B1
S11304F0EE0FFF1F81E090E08C0F9D1FE80FF91FA6
S1130500608182E40E94AC0113C041E066E082E4B1
S11305100E942101E12FF0E0EE0FFF1F81E090E047
S11305208C0F9D1FE80FF91F608182E40E94AC01CB
S113053064960FB6F894DEBF0FBECDBFDF91CF91A6
S11305401F910F910895823079F018F4813031F0C1
S11305500895833079F0843099F0089540E063E0A1
S113056081E40E942101089540E062E081E40E9458
S11305702101089540E065E082E40E94210108958C
S113058040E066E082E40E9421010895823079F01F
S113059018F4813031F00895833079F0843099F083
S11305A0089541E063E081E40E942101089541E05F
S11305B062E081E40E942101089541E065E082E463
S11305C00E942101089541E066E082E40E94210135
S11305D008950E94FA0160E081E40E94490062E00B
S11305E084E40E9449000E94F80184E00E94C7014B
S11305F0109275001092740060E081E40E944D0036
S11306008130E9F4809174009091750084369105ED
S113061021F410927500109274002FEF81EE94E093
S1130620215080409040E1F700C0000080917400A8
S11306309091750001969093750080937400809159
S11306407400909175006AE070E00E946903C62FFF
S1130650D82F84E00E94C6026D2F84E00E942302FA
S11306608FE99FE00197F1F700C0000084E00E9449
S1130670A30283E00E94C6026C2F83E00E9423023F
S11306808FE99FE00197F1F700C0000083E00E942A
S1130690A302B2CF1F920F920FB60F9211248F9321
S11306A09F9380917400909175008436910529F48C
S11306B0109275001092740005C001969093750015
S11306C0809374009F918F910F900FBE0F901F9095
S11306D0189597FB072E16F4009407D077FD09D0E0
S11306E00E947D0307FC05D03EF4909581959F4FB1
S11306F00895709561957F4F0895AA1BBB1B51E126
S113070007C0AA1FBB1FA617B70710F0A61BB70B7D
S1130710881F991F5A95A9F780959095BC01CD0122
S10907200895F894FFCFD8
S113072600000100020003000400050006000700A3
S1070736100011009A
S9030000FC
