:100000000C942A000C9434000C9434000C943400AA
:100010000C9434000C9434000C9434000C94340090
:100020000C9434000C9434000C9434000C94340080
:100030000C9434000C9434000C9434000C94340070
:100040000C9434000C9443010C9434000C94340050
:100050000C94340011241FBECFE5D8E0DEBFCDBF25
:100060000E9432010C9475010C940000823419F145
:1000700018F4813439F008958334B1F1843409F4EB
:100080004CC00895413059F42AB381E090E002C099
:10009000880F991F6A95E2F7822B8ABB08952AB3CD
:1000A00081E090E002C0880F991F6A95E2F7809581
:1000B00082238ABB0895413059F427B381E090E050
:1000C00002C0880F991F6A95E2F7822B87BB0895BB
:1000D00027B381E090E002C0880F991F6A95E2F78C
:1000E0008095822387BB0895413059F424B381E081
:1000F00090E002C0880F991F6A95E2F7822B84BBBB
:10010000089524B381E090E002C0880F991F6A959A
:10011000E2F78095822384BB0895413059F421B3DE
:1001200081E090E002C0880F991F6A95E2F7822B68
:1001300081BB089521B381E090E002C0880F991F30
:100140006A95E2F78095822381BB0895823419F184
:1001500018F4813439F008958334B1F1843409F40A
:100160004CC00895413059F42BB381E090E002C0B7
:10017000880F991F6A95E2F7822B8BBB08952BB3EA
:1001800081E090E002C0880F991F6A95E2F78095A0
:1001900082238BBB0895413059F428B381E090E06D
:1001A00002C0880F991F6A95E2F7822B88BB0895D9
:1001B00028B381E090E002C0880F991F6A95E2F7AA
:1001C0008095822388BB0895413059F425B381E09E
:1001D00090E002C0880F991F6A95E2F7822B85BBD9
:1001E000089525B381E090E002C0880F991F6A95B9
:1001F000E2F78095822385BB0895413059F422B3FC
:1002000081E090E002C0880F991F6A95E2F7822B87
:1002100082BB089522B381E090E002C0880F991F4D
:100220006A95E2F78095822382BB08958EBB1FBA40
:100230006DBB8CB384608CBB8CB382608CBBE1994A
:10024000FECF08958CB388608CBB089541E00E9476
:100250003600089541E00E94A600089540E00E9403
:10026000A60008950E94220160E081E40E94260118
:10027000789460E580E390E00E94160160E081E4FC
:100280000E942E01FBCF1F920F920FB60F921124E6
:100290002F933F934F935F936F937F938F939F938E
:1002A000AF93BF93EF93FF9360E081E40E942A0134
:1002B0002FEF83ED90E3215080409040E1F700C0A4
:1002C00000008CB3877F8CBBFF91EF91BF91AF9102
:1002D0009F918F917F916F915F914F913F912F915E
:0E02E0000F900FBE0F901F901895F894FFCF4F
:00000001FF
