:100000000C942A000C9434000C9434000C943400AA
:100010000C9434000C9434000C9434000C94340090
:100020000C9434000C9434000C9434000C94340080
:100030000C9434000C9434000C9434000C94340070
:100040000C9434000C9434000C9434000C94340060
:100050000C94340011241FBECFE5D8E0DEBFCDBF25
:100060000E9436000C9451000C94000080E40E9421
:100070003A00FFCF97B3986097BB93B7986093BF50
:1000800093B7906493BF8CBF83B7816083BF83B7FE
:100090008D7F83BF83B7846083BF83B7806283BF54
:0600A0000895F894FFCF63
:00000001FF
