S00D00007461736B312E7372656333
S11300000C942A000C943F000C943F000C943F0085
S11300100C943F000C943F000C943F000C943F0060
S11300200C943F000C943F000C943F000C943F0050
S11300300C943F000C943F000C943F000C943F0040
S11300400C943F000C943F000C943F000C943F0030
S11300500C943F0011241FBECFE5D8E0DEBFCDBF16
S113006010E0A0E6B0E0E4E6F3E002C005900D92F3
S1130070A036B107D9F70E9441010C94B0010C9449
S1130080000040E00E94480008950E94B8000895CE
S1130090823419F118F4813439F008958334B1F1BC
S11300A0843409F44CC00895413059F42AB381E0F2
S11300B090E002C0880F991F6A95E2F7822B8ABBF1
S11300C008952AB381E090E002C0880F991F6A95D1
S11300D0E2F7809582238ABB0895413059F427B30F
S11300E081E090E002C0880F991F6A95E2F7822BA5
S11300F087BB089527B381E090E002C0880F991F61
S11301006A95E2F78095822387BB0895413059F4BC
S113011024B381E090E002C0880F991F6A95E2F74A
S1130120822B84BB089524B381E090E002C0880F41
S1130130991F6A95E2F78095822384BB0895413024
S113014059F421B381E090E002C0880F991F6A95A9
S1130150E2F7822B81BB089521B381E090E002C0D5
S1130160880F991F6A95E2F78095822381BB0895D1
S11301708234F9F018F4813439F059C0833471F1C0
S1130180843409F440C053C049B381E090E09C0139
S1130190062E02C0220F331F0A94E2F7842F90E048
S11301A08223932302C0969587956A95E2F7982F48
S11301B03EC046B381E090E09C01062E02C0220FAF
S11301C0331F0A94E2F7842F90E08223932302C022
S11301D0969587956A95E2F7982F29C043B381E0F5
S11301E090E09C01062E02C0220F331F0A94E2F70E
S11301F0842F90E08223932302C0969587956A9575
S1130200E2F7982F14C040B381E090E09C01062EE1
S113021002C0220F331F0A94E2F7842F90E0822356
S1130220932302C0969587956A95E2F7982F892FB4
S113023008956F70823481F018F4813431F0089598
S1130240833489F08434B1F008958BB3807F8BBB01
S11302508BB3682B6BBB089588B3807F88BB88B34E
S1130260682B68BB089585B3807F85BB85B3682BF5
S113027065BB089582B3807F82BB82B3682B62BB67
S1130280089583E40E94710184E40E94710160E096
S113029081E40E944100C0E0D0E060E081E40E947B
S11302A045008130D1F7C436D10511F4C0E0D0E067
S11302B0CE016AE070E00E948801162F682F83E463
S11302C00E948501612F84E40E94850121962FE715
S11302D08AE196E0215080409040E1F700C00000A0
S11302E0DCCF1F93CF93DF93182FC0E0D0E006C07C
S11302F041E06C2F812F0E9448002196C430D10523
S1130300BCF3DF91CF911F9108950E9419010895C4
S113031097FB072E16F4009407D077FD09D00E94AE
S11303209C0107FC05D03EF4909581959F4F08955C
S1130330709561957F4F0895AA1BBB1B51E107C0BF
S1130340AA1FBB1FA617B70710F0A61BB70B881F61
S1130350991F5A95A9F780959095BC01CD010895F0
S1070360F894FFCF3B
S9030000FC
