S01000006C63645F31365F322E737265638A
S11300000C942A000C9447000C9447000C9447006D
S11300100C9447000C9447000C9447000C94470040
S11300200C9447000C9447000C9447000C94470030
S11300300C9447000C9447000C9447000C94470020
S11300400C9447000C9447000C9447000C94470010
S11300500C94470011241FBECFE5D8E0DEBFCDBF0E
S113006010E0A0E6B0E0E8E2F6E002C005900D92F0
S1130070AC36B107D9F720E0ACE6B0E001C01D9280
S1130080AE36B207E1F70E947A020C9412030C9484
S1130090000040E00E94500008950E94C0000895AE
S11300A0823419F118F4813439F008958334B1F1AC
S11300B0843409F44CC00895413059F42AB381E0E2
S11300C090E002C0880F991F6A95E2F7822B8ABBE1
S11300D008952AB381E090E002C0880F991F6A95C1
S11300E0E2F7809582238ABB0895413059F427B3FF
S11300F081E090E002C0880F991F6A95E2F7822B95
S113010087BB089527B381E090E002C0880F991F50
S11301106A95E2F78095822387BB0895413059F4AC
S113012024B381E090E002C0880F991F6A95E2F73A
S1130130822B84BB089524B381E090E002C0880F31
S1130140991F6A95E2F78095822384BB0895413014
S113015059F421B381E090E002C0880F991F6A9599
S1130160E2F7822B81BB089521B381E090E002C0C5
S1130170880F991F6A95E2F78095822381BB0895C1
S11301808234F9F018F4813439F059C0833471F1B0
S1130190843409F440C053C049B381E090E09C0129
S11301A0062E02C0220F331F0A94E2F7842F90E038
S11301B08223932302C0969587956A95E2F7982F38
S11301C03EC046B381E090E09C01062E02C0220F9F
S11301D0331F0A94E2F7842F90E08223932302C012
S11301E0969587956A95E2F7982F29C043B381E0E5
S11301F090E09C01062E02C0220F331F0A94E2F7FE
S1130200842F90E08223932302C0969587956A9564
S1130210E2F7982F14C040B381E090E09C01062ED1
S113022002C0220F331F0A94E2F7842F90E0822346
S1130230932302C0969587956A95E2F7982F892FA4
S11302400895823419F118F4813439F0089583340F
S1130250B1F1843409F44CC00895413059F42BB3FE
S113026081E090E002C0880F991F6A95E2F7822B23
S11302708BBB08952BB381E090E002C0880F991FD7
S11302806A95E2F7809582238BBB0895413059F437
S113029028B381E090E002C0880F991F6A95E2F7C5
S11302A0822B88BB089528B381E090E002C0880FB8
S11302B0991F6A95E2F78095822388BB089541309F
S11302C059F425B381E090E002C0880F991F6A9524
S11302D0E2F7822B85BB089525B381E090E002C04C
S11302E0880F991F6A95E2F78095822385BB08954C
S11302F0413059F422B381E090E002C0880F991F85
S11303006A95E2F7822B82BB089522B381E090E0E4
S113031002C0880F991F6A95E2F78095822382BBF9
S11303200895823481F018F4813431F008958334CF
S113033089F08434B1F00895613019F48FEF8ABBE9
S113034008951ABA0895613019F48FEF87BB0895A0
S113035017BA0895613019F48FEF84BB089514BA65
S11303600895613019F48FEF81BB089511BA08958F
S1130370823459F018F4813431F00895833439F01B
S1130380843439F008956BBB089568BB089565BB48
S1130390089562BB089541E060E082E40E94210177
S11303A08FE99FE00197F1F700C0000040E060E0B2
S11303B082E40E9421018FE99FE00197F1F700C0D8
S11303C000000895682F81E40E94B80140E061E0D4
S11303D082E40E9421010E94CB0108952FEF81EE57
S11303E094E0215080409040E1F700C0000061E0BB
S11303F081E40E94910141E060E082E40E945000A7
S113040041E062E082E40E94500041E061E082E465
S11304100E94500040E062E082E40E94210188E3EF
S11304200E94E2018FEC97E00197F1F700C0000011
S11304308EE00E94E2018FEC97E00197F1F700C093
S1130440000081E00E94E2018FE19EE40197F1F750
S113045000C0000086E00E94E2018FEC97E0019763
S1130460F1F700C000000895682F81E40E94B801EC
S113047041E061E082E40E9421010E94CB010895E1
S1130480CF93DF93EC0103C00E943402219688814C
S11304908111FACFDF91CF9108959FEF980F923099
S11304A070F4613170F4662371F0813019F42FE730
S11304B0260F0AC0823041F42FEB260F05C020E836
S11304C003C020E801C020E8822F0E94E2018FECE3
S11304D097E00197F1F700C00000089541E00E9401
S11304E05000089541E00E942101089540E00E94D7
S11304F02101089560E084E40E94490062E084E4FC
S11305000E94490061E070E084E490E00E946E0281
S113051061E070E084E490E00E9472022FEF84E3D3
S11305209CE0215080409040E1F700C000000E9410
S1130530EE0180E690E00E94400260E084E40E94C4
S11305404D00813009F561E070E084E490E00E94A0
S1130550720280916C0090916D008336910534F4A1
S1130560019690936D0080936C0004C010926D000E
S113057010926C002FE78AE196E021508040904071
S1130580E1F700C0000006C061E070E084E490E0A0
S11305900E9476026CE081E00E944D0280916C0022
S11305A090916D00CAE0D0E0BE010E94EA02805D35
S11305B00E9434026BE081E00E944D0280916C0045
S11305C090916D00BE010E94EA0280E3860F0E94B2
S11305D03402B3CF97FB072E16F4009407D077FDAF
S11305E009D00E94FE0207FC05D03EF49095819547
S11305F09F4F0895709561957F4F0895AA1BBB1B6B
S113060051E107C0AA1FBB1FA617B70710F0A61B0E
S1130610B70B881F991F5A95A9F780959095BC012F
S10B0620CD010895F894FFCF09
S10F0628636F756E746572203D20000045
S9030000FC
