:100000000C942A000C943F000C943F000C943F0089
:100010000C943F000C943F000C943F000C943F0064
:100020000C943F000C943F000C943F000C943F0054
:100030000C943F000C943F000C943F000C943F0044
:100040000C943F000C943F000C943F000C943F0034
:100050000C943F0011241FBECFE5D8E0DEBFCDBF1A
:1000600010E0A0E6B0E0EEEAF7E002C005900D92E5
:10007000A636B107D9F70E9424020C94D5030C943C
:10008000000087B987B1806487B987B18F7787B956
:1000900087B18F7D87B986B1806886B986B1846063
:1000A00086B986B1826086B986B18E7F86B9089599
:1000B00086B1806486B9349BFECF86B1806186B9F3
:1000C00024B185B190E0982F8827822B089582343F
:1000D00019F118F4813439F008958334B1F184347E
:1000E00009F44CC00895413059F42AB381E090E0FE
:1000F00002C0880F991F6A95E2F7822B8ABB089588
:100100002AB381E090E002C0880F991F6A95E2F758
:10011000809582238ABB0895413059F427B381E04A
:1001200090E002C0880F991F6A95E2F7822B87BB87
:10013000089527B381E090E002C0880F991F6A9567
:10014000E2F78095822387BB0895413059F424B3A8
:1001500081E090E002C0880F991F6A95E2F7822B38
:1001600084BB089524B381E090E002C0880F991FFA
:100170006A95E2F78095822384BB0895413059F453
:1001800021B381E090E002C0880F991F6A95E2F7E1
:10019000822B81BB089521B381E090E002C0880FDB
:1001A000991F6A95E2F78095822381BB0895823476
:1001B00019F118F4813439F008958334B1F184349D
:1001C00009F44CC00895413059F42BB381E090E01C
:1001D00002C0880F991F6A95E2F7822B8BBB0895A6
:1001E0002BB381E090E002C0880F991F6A95E2F777
:1001F000809582238BBB0895413059F428B381E068
:1002000090E002C0880F991F6A95E2F7822B88BBA5
:10021000089528B381E090E002C0880F991F6A9585
:10022000E2F78095822388BB0895413059F425B3C5
:1002300081E090E002C0880F991F6A95E2F7822B57
:1002400085BB089525B381E090E002C0880F991F17
:100250006A95E2F78095822385BB0895413059F471
:1002600022B381E090E002C0880F991F6A95E2F7FF
:10027000822B82BB089522B381E090E002C0880FF8
:10028000991F6A95E2F78095822382BB0895823494
:1002900081F018F4813431F00895833489F0843486
:1002A000B1F00895613019F48FEF8ABB08951ABA3E
:1002B0000895613019F48FEF87BB089517BA089538
:1002C000613019F48FEF84BB089514BA089561303A
:1002D00019F48FEF81BB089511BA0895823459F053
:1002E00018F4813431F00895833439F0843439F0CE
:1002F00008956BBB089568BB089565BB089562BB04
:10030000089541E060E082E40E94D7008FE99FE019
:100310000197F1F700C0000040E060E082E40E9435
:10032000D7008FE99FE00197F1F700C00000089522
:10033000682F83E40E946E0140E061E082E40E9445
:10034000D7000E94810108952FEF81EE94E02150A3
:1003500080409040E1F700C0000061E083E40E942B
:10036000470141E060E082E40E94670041E062E012
:1003700082E40E94670041E061E082E40E9467003D
:1003800040E062E082E40E94D70088E30E94980186
:100390008FEC97E00197F1F700C000008EE00E941B
:1003A00098018FEC97E00197F1F700C0000081E021
:1003B0000E9498018FE19EE40197F1F700C00000D0
:1003C00086E00E9498018FEC97E00197F1F700C05A
:1003D00000000895682F83E40E946E0141E061E00F
:1003E00082E40E94D7000E9481010895CF93DF9399
:1003F000EC0103C00E94EA01219688818111FACFA5
:10040000DF91CF9108959FEF980F923070F4613192
:1004100070F4662371F0813019F42FE7260F0AC0BB
:10042000823041F42FEB260F05C020E803C020E8FE
:1004300001C020E8822F0E9498018FEC97E001977D
:10044000F1F700C0000008950E94A40180E00E941E
:10045000410080E690E00E94F6010E945800BC0135
:1004600080E090E00E94CB0220E030E040E05FE3DB
:100470000E9431030E949C026B017C016A3071056D
:1004800058F566E081E00E94030280E30E94EA01E1
:100490009601ADECBCEC0E94C603969587959695A7
:1004A0008795969587959C01220F331F880F991F7A
:1004B000880F991F880F991F820F931F9601281B81
:1004C000390BC901805D0E94EA018FED0E94EA01AB
:1004D00083E40E94EA01C1CF6436710508F0BDCF04
:1004E00066E081E00E9403029601ADECBCEC0E9444
:1004F000C603EC01D695C795D695C795D695C795F1
:100500008C2F805D0E94EA01CE01880F991FCC0FCD
:10051000DD1FCC0FDD1FCC0FDD1FC80FD91FC6019B
:100520008C1B9D0B805D0E94EA018FED0E94EA0109
:1005300083E40E94EA0191CF0E94100388F09F5744
:1005400098F0B92F9927B751B0F0E1F0660F771FF7
:10055000881F991F1AF0BA95C9F714C0B13091F0ED
:100560000E942A03B1E008950C942A03672F782F84
:100570008827B85F39F0B93FCCF3869577956795B2
:10058000B395D9F73EF490958095709561957F4F1E
:100590008F4F9F4F0895E89409C097FB3EF49095C4
:1005A0008095709561957F4F8F4F9F4F9923A9F04C
:1005B000F92F96E9BB279395F695879577956795DB
:1005C000B795F111F8CFFAF4BB0F11F460FF1BC01F
:1005D0006F5F7F4F8F4F9F4F16C0882311F096E9B2
:1005E00011C0772321F09EE8872F762F05C0662360
:1005F00071F096E8862F70E060E02AF09A95660F19
:10060000771F881FDAF7880F9695879597F90895D1
:1006100057FD9058440F551F59F05F3F71F04795B3
:10062000880F97FB991F61F09F3F79F08795089598
:10063000121613061406551FF2CF4695F1DF08C0B7
:10064000161617061806991FF1CF869571056105D4
:1006500008940895E894BB2766277727CB0197F97C
:1006600008950E9444030C94B5030E94A70338F038
:100670000E94AE0320F0952311F00C949E030C947D
:10068000A40311240C942B030E94080370F3959F7C
:10069000C1F3950F50E0551F629FF001729FBB2779
:1006A000F00DB11D639FAA27F00DB11DAA1F649F15
:1006B0006627B00DA11D661F829F2227B00DA11DC8
:1006C000621F739FB00DA11D621F839FA00D611D4E
:1006D000221F749F3327A00D611D231F849F600D6F
:1006E000211D822F762F6A2F11249F5750409AF098
:1006F000F1F088234AF0EE0FFF1FBB1F661F771F24
:10070000881F91505040A9F79E3F510580F00C94EE
:100710009E030C942B035F3FE4F3983ED4F386953D
:1007200077956795B795F795E7959F5FC1F7FE2B8E
:10073000880F911D9695879597F9089597F99F676A
:1007400080E870E060E008959FEF80EC0895002459
:100750000A941616170618060906089500240A9426
:1007600012161306140605060895092E0394000CAC
:1007700011F4882352F0BB0F40F4BF2B11F460FF3B
:1007800004C06F5F7F4F8F4F9F4F0895A29FB001AE
:10079000B39FC001A39F700D811D1124911DB29FB5
:0E07A000700D811D1124911D0895F894FFCF56
:0607AE0054656D703D0072
:00000001FF
